:020000040800F2
:1000000000000220B9020008C1020008C502000871
:100010000D03000811030008590300080000000048
:10002000000000000000000000000000A103000824
:10003000A503000800000000A90300081112000831
:10004000BD030008BD030008BD030008BD03000890
:10005000BD030008BD030008BD030008BD03000880
:10006000BD030008BD030008BD030008BD03000870
:10007000BD030008BD030008BD030008BD03000860
:10008000BD030008BD030008BD030008BD03000850
:10009000BD030008BD030008BD030008BD03000840
:1000A000BD030008BD030008BD030008BD03000830
:1000B000BD030008BD030008BD030008BD03000820
:1000C000BD030008BD030008BD030008BD03000810
:1000D00089130008BD03000801150008BD030008CE
:1000E000BD030008BD030008BD030008BD030008F0
:1000F000BD030008BD030008BD030008BD030008E0
:10010000BD030008BD030008BD030008BD030008CF
:10011000BD030008BD030008BD030008BD030008BF
:10012000BD030008BD030008BD030008BD030008AF
:10013000BD0300080000000000000000BD0300082F
:10014000BD030008BD030008BD030008BD0300088F
:10015000BD030008BD030008BD030008BD0300087F
:10016000BD030008BD030008BD030008BD0300086F
:10017000BD030008BD0300080000000000000000EF
:10018000BD030008BD03000800B583B000F024FEE5
:10019000384B394A1360394A136039490CE00A6810
:1001A0004B6801F10C04886803E01168196004339E
:1001B00004329842F9D82146324B9942EFD32E4B64
:1001C0001A68314B9A4204D12C4B1A682F4B9A4231
:1001D00000D0FEE7274B2E4A13602E4A13602E4BA9
:1001E0000AE0194651F8082B5B6802E00020106015
:1001F00004329A42FAD30B46284A9342F1D3244B55
:100200001B6813B9234B1B6803B1FEE701F070F9BB
:1002100001A8694600F07AFD214C224B1C1BA4105A
:10022000002504E01E4B53F8253098470135AC42B9
:10023000F8DC1D4C1D4B1C1BA410002504E01A4BC0
:1002400053F8253098470135AC42F8DC0198009905
:1002500001F0C8F90546164C164B1C1BA41004E00F
:10026000013C134B53F824309847002CF8DC284607
:1002700000F01EFDBABADECA0000002074000020A3
:10028000C0030008D8030008785634123254769818
:1002900078000020D4010020D8030008E8030008FB
:1002A000E8030008E8030008E8030008E803000882
:1002B000E8030008E803000808B5FFF765FF00BF82
:1002C00000BEFEE71EF0040F0CBFEFF30880EFF353
:1002D00009807146364A10472DE9F04182B0074641
:1002E0008846084B5D6B9C6B9E6A074800F022FDB8
:1002F000CDF80080384631462A46234600F07EFD80
:1003000000BEFEE700ED00E0C424000800BEFEE7EA
:100310001EF0040F0CBFEFF30880EFF30980714665
:10032000244A10472DE9F04182B007468846084B21
:100330005D6B9C6B9E6A074800F0FCFCCDF800806A
:10034000384631462A46234600F058FD00BEFEE7F7
:1003500000ED00E0D42400081EF0040F0CBFEFF302
:100360000880EFF309807146134A10472DE9F041E8
:1003700082B007468846084B5D6B9C6B9E6A0748B7
:1003800000F0D8FCCDF80080384631462A46234696
:1003900000F034FD00BEFEE700ED00E0E0240008C0
:1003A00000BEFEE700BEFEE700BEFEE770470000AD
:1003B000D9020008250300086D03000800BEFEE70F
:1003C00038250008000000207800002038250008AB
:1003D000000000100000001078000020D80100206C
:0803E0000000001000000010F5
:1003E80010B5044600F046FC064BA3FB003080091C
:1003F80000F08AF84FF0FF302146002200F042F862
:10040800002010BDD34D621008B50B4B1A6842F49A
:1004180000721A601A6842F480621A601A6842F41C
:1004280080721A60032000F00FF80F20FFF7D8FF42
:1004380001F00AF9002008BD003C0240014B186891
:10044800704700BF1401002010B50446C31E042BDA
:1004580003D90A48A42100F05DFC04F00700084A0B
:10046800D36823F4E0631B041B0C43EA002040F02C
:10047800BF6040F40030D06010BD00BF8822000883
:1004880000ED00E070B504460E4615460F2A03D964
:100498001A48BC2100F03EFC0F2E03D91748BD2195
:1004A80000F038FC164BDB68C3F30223C3F10702E4
:1004B800042A28BF0422191D062901D9D81E00E0E4
:1004C8000020012303FA02F2013A324002FA00F155
:1004D80083405A1E2A400A43002C06DA04F00F040F
:1004E8001201D2B2074B1A5570BD1201D2B204F1F3
:1004F800604404F5614484F8002370BD8822000834
:1005080000ED00E014ED00E00138B0F1807F0AD280
:10051800064B5860F021064A82F8231000209860A4
:1005280007221A6070470120704700BF10E000E002
:1005380000ED00E010B50446042805D020B10948B4
:1005480040F2B31100F0E6FB042C05D1064A13680B
:1005580043F00403136010BD034A136823F0040337
:10056800136010BD8822000810E000E030B583B0A9
:10057800044603680F2B03D99C48F62100F0CAFBF8
:10058800236813F0010F45D06368012B05D9052BAB
:1005980003D09648FB2100F0BDFB954B9B6803F008
:1005A8000C03042B0AD0924B9B6803F00C03082B16
:1005B8000CD18F4B5B6813F4800F07D08C4B1B68F2
:1005C80013F4003F26D0636823BBCBE12279894B23
:1005D8001A7063687BB1FFF731FF054605E0FFF746
:1005E8002DFF401B642800F2BF81814B1B6813F468
:1005F800003FF4D00EE0FFF721FF054605E0FFF7C6
:100608001DFF401B642800F2B181794B1B6813F46D
:10061800003FF4D1236813F0020F6AD0E368012B7E
:1006280004D9724840F22D1100F074FB23691F2B86
:1006380004D96E484FF4977100F06CFB6C4B9B68C3
:1006480013F00C0F0AD06A4B9B6803F00C03082BBD
:100658001BD1674B5B6813F4800F16D1644B1B6882
:1006680013F0020F03D0E368012B40F0818160484A
:10067800036823F0F8012369F82292FAA2F2B2FA89
:1006880082F293400B43036033E0E368FBB101223D
:10069800594B1A60FFF7D2FE054605E0FFF7CEFE7C
:1006A800401B022800F26681514B1B6813F0020FB1
:1006B800F4D04F48036823F0F8012369F82292FA2E
:1006C800A2F2B2FA82F293400B43036011E00022D7
:1006D800494B1A60FFF7B2FE054605E0FFF7AEFE8C
:1006E800401B022800F24881414B1B6813F0020F9F
:1006F800F4D1236813F0080F2ED06369012B04D9B5
:100708003A484FF4B77100F005FB636993B10122D1
:100718003A4B1A60FFF792FE054605E0FFF78EFE9A
:10072800401B022800F22A81314B5B6F13F0020F45
:10073800F4D011E00022314B1A60FFF77FFE054626
:1007480005E0FFF77BFE401B022800F21981284BC9
:100758005B6F13F0020FF4D1236813F0040F60D01D
:10076800A368012B06D9052B04D020484FF4CC717F
:1007780000F0D0FA002301931D4B1A6C42F080520E
:100788001A641B6C03F080530193019B1C4A136885
:1007980043F480731360FFF751FE054605E0FFF749
:1007A8004DFE401B022800F2ED80154B1B6813F428
:1007B800807FF4D0227A134B1A70A3688BB1FFF7AD
:1007C8003DFE054607E0FFF739FE401B41F288333E
:1007D800984200F2D980064B1B6F13F0020FF2D03B
:1007E8001FE0FFF72BFE054616E000BFCC220008ED
:1007F800003802400238024000004742800E47425B
:100808000070004070380240FFF718FE401B41F2AC
:100818008833984200F2BA80634B1B6F13F0020FC3
:10082800F2D1A369022B04D9604840F2CD1100F03F
:1008380071FAA369002B00F0AB805B4A926802F062
:100848000C02082A00F0A680022B78D1E3693BB19C
:10085800B3F5800F04D055484FF4EB7100F05AFA05
:10086800236A3F2B04D9514840F2D71100F052FABD
:10087800636A323BB3F5BF7F04D94C484FF4EC713F
:1008880000F048FAA36A022B0AD0042B08D0062BE2
:1008980006D0082B04D0454840F2D91100F03AFAA6
:1008A800E36A043B0B2B04D940484FF4ED7100F088
:1008B80031FA00223E4B1A60FFF7C0FD054604E0FE
:1008C800FFF7BCFD401B022866D8374B1B6813F0A6
:1008D800007FF5D1E269236A1A43636A47F6C0715B
:1008E80091FAA1F1B1FA81F18B401A43A36A5B082E
:1008F800013B4FF4403191FAA1F1B1FA81F18B40FB
:100908001343E26A4FF0706191FAA1F1B1FA81F1F3
:100918008A401343244A53600122254B1A60FFF78B
:100928008DFD044604E0FFF789FD001B022835D839
:100938001D4B1B6813F0007FF5D0002031E000222A
:100948001B4B1A60FFF77AFD044604E0FFF776FDBB
:10095800001B022824D8144B1B6813F0007FF5D124
:1009680000201EE001201CE003201AE0032018E00C
:10097800012016E0032014E0032012E0032010E019
:1009880003200EE003200CE003200AE0032008E027
:10099800002006E0012004E0032002E0032000E03C
:1009A800032003B030BD00BF00380240CC2200084D
:1009B8006000474270B504460D460368013B0E2BA4
:1009C80004D984484FF40E7100F0A4F9072D04D916
:1009D800804840F2392100F09DF97F4B1B6803F0F5
:1009E8000F03AB4208D2EBB27B4A1370136803F0D3
:1009F8000F03AB4240F0DB80236813F0020F1DD0D9
:100A0800A368A3B1802B12D0902B10D0A02B0ED0AE
:100A1800B02B0CD0C02B0AD0D02B08D0E02B06D09E
:100A2800F02B04D06B484FF4147100F073F96B4944
:100A38008B6823F0F002A36813438B60236813F0DC
:100A4800010F64D06368032B04D9624840F2572130
:100A580000F060F96268012A05D1604B1B6813F445
:100A6800003F0FD1A5E0931E012B05D85B4B1B68F7
:100A780013F0007F06D19EE0584B1B6813F0020F5D
:100A880000F09B8055498B6823F0030313438B6068
:100A9800FFF7D4FC06466368012B0FD107E0FFF788
:100AA800CDFC801B41F28833984200F288804B4B82
:100AB8009B6803F00C03042BF1D128E0022B0ED124
:100AC80006E0FFF7BBFC801B41F28833984278D8D8
:100AD800424B9B6803F00C03082BF2D117E0032B61
:100AE80010D13E4B9B68FFF7A9FC801B41F288336D
:100AF8009842F6D967E0FFF7A1FC801B41F28833E2
:100B0800984262D8354B9B6813F00C0FF3D1324BE7
:100B18001B6803F00F03AB4207D9EAB22E4B1A70D9
:100B28001B6803F00F03AB4251D1236813F0040F85
:100B380019D0E36883B1B3F5805F0DD0B3F5A05F3A
:100B48000AD0B3F5C05F07D0B3F5E05F04D0214801
:100B580040F2B52100F0DEF820498B6823F4E0521A
:100B6800E36813438B60236813F0080F1AD02369D6
:100B780083B1B3F5805F0DD0B3F5A05F0AD0B3F5AC
:100B8800C05F07D0B3F5E05F04D012484FF42F716F
:100B980000F0C0F8114A936823F46043216943EADE
:100BA800C10393600F20FFF71BFC002070BD0120DC
:100BB80070BD012070BD012070BD012070BD0320F3
:100BC80070BD032070BD032070BD032070BD0120DF
:100BD80070BD00BFCC220008003C02400038024033
:100BE800214B9B6803F00C03042B3AD0082B01D04F
:100BF8001E4870471C4B586800F03F005B6813F4B0
:100C0800800F0FD01A4BB3FBF0F3174A506847F622
:100C1800C072104092FAA2F2B2FA82F2D04000FBFF
:100C280003F30EE0114BB3FBF0F30F4A506847F69D
:100C3800C072104092FAA2F2B2FA82F2D04000FBDF
:100C480003F3094A506800F440304FF4403292FAF6
:100C5800A2F2B2FA82F2D04001304000B3FBF0F0C9
:100C680070470348704700BF003802400024F40072
:100C780000127A0008B5FFF7B3FF084B9B6803F032
:100C8800F003F02292FAA2F2B2FA82F2D340044AB6
:100C9800D35CD840034B186008BD00BF0038024041
:100CA800BC2200080C000020FEE700BF08B503487E
:100CB80000F056F80120FFF7F7FF00BFFC220008FC
:100CC80008B50D4B1B6813B90C4A0B4B1A600A4B3D
:100CD8001A68C31C23F00303134409498B4206D93D
:100CE80000F08CFE0C2303604FF0FF3008BD024972
:100CF8000B60104608BD00BF7C000020D801002012
:100D080000FC012001230360014B0B60704700BF0A
:100D18000400002008B503460A460348194600F0B7
:100D280005F8FFF7C3FF00BF502300080FB400B554
:100D380083B004AB53F8042B01930848802100F0DA
:100D480053FF011E03DD054800F03EF80146084642
:100D580003B05DF804EB04B0704700BF84000020C6
:100D680010B5044600F00EFF0146204600F02CF8AE
:100D78000248012100F028F810BD00BF40240008F7
:100D880010B400221AE04FF06043D3F8803E13F00D
:100D9800010F06D04FF06043D3F8003E13F0010F67
:100DA80001D110460DE04FF060431B68002BFAD0CC
:100DB80004784FF060431C70013201308A42E2D35C
:100DC80008465DF8044B704708B5FFF7D9FF08BD22
:100DD80008B500F087F8054B054A9A60D3F88820D3
:100DE80042F47002C3F8882008BD00BF00ED00E09F
:100DF80000000008F8B504460D4617461E4626486A
:100E0800FFF794FF25482168FFF790FF24486168A1
:100E1800FFF78CFF2348A168FFF788FF2248E168A5
:100E2800FFF784FF21482169FFF780FF20486169A7
:100E3800FFF77CFF1F48A169FFF778FF1E48E169AB
:100E4800FFF774FF1D48FFF771FF1D482946FFF79C
:100E58006DFF1C4CE16A1C48FFF768FF216B1B48BB
:100E6800FFF764FFE16B1A48FFF760FF15F0800F8A
:100E780003D018483946FFF759FF15F4004F03D03F
:100E880015483146FFF752FF1448FFF74FFF144843
:100E98000699FFF74BFFF8BDA8230008B823000800
:100EA800C8230008D8230008E8230008F82300080E
:100EB80008240008182400082824000838240008FA
:100EC8004424000800ED00E05424000864240008CD
:100ED800742400088424000894240008A42400082A
:100EE800AC2400080F49D1F8883043F47003C1F8E6
:100EF80088300D4B1A6842F001021A600020986091
:100F08001A6822F0847222F480321A60074A5A6002
:100F18001A6822F480221A60D8604FF000638B6050
:100F2800704700BF00ED00E0003802401030002498
:100F3800224B9B6803F00C03042B07D0082B09D025
:100F4800002B2DD11E4A1F4B1A602CE01E4A1D4B48
:100F58001A6028E0194B5A685B6803F03F0312F4E3
:100F6800800F09D0184AB2FBF3F2144B5B68C3F345
:100F7800881303FB02F208E0114AB2FBF3F30F4AAD
:100F88005168C1F3881101FB03F20C4B5B68C3F392
:100F9800014301335B00B2FBF3F30A4A136002E03A
:100FA800074A084B1A60054B9B68C3F30313074AAB
:100FB800D15C044A1368CB40136070470038024084
:100FC8000024F4000C00002000127A00F02400082D
:100FD80010B4044600231846012208E014EA02016E
:100FE80002D0D940014388B292000133DBB20F2B03
:100FF800F4D95DF8044B70472DE9F04104460D46DD
:1010080090461F469DF918600846FFF7E1FF2268E1
:10101800EB431A402260226805F0AA310A43226095
:10102800B8F1000F04D1626822EA0000606002E0B3
:10103800626810436060A2681A40A260682F0DD0F1
:101048006D2F05D0662F0DD1A2680A43A2600CE06F
:10105800A06805F055320243A26006E0A2682A4360
:10106800A26002E0A2681A40A260E2681A40E26048
:10107800642E08D0752E0BD1E36805F055351D4355
:10108800E560BDE8F081E3681943E160BDE8F081FF
:10109800E2681340E360BDE8F08100BFF0B40024CB
:1010A8002546012311E019420AD0076A0F26AE40EF
:1010B80027EA06060662076A02FA05F63E43066252
:1010C8009B000435EDB20134E4B2072CEBD90024BF
:1010D800254611E019420AD0476A0F26AE4027EA92
:1010E80006064662476A02FA05F63E4346629B00D8
:1010F8000435EDB20134E4B2072CEBD9F0BC7047EB
:10110800124B1A6842F001021A6000229A601968AC
:1011180021F0A16121F4A02119600D495960596895
:1011280021F05F4121F4430121F4FF4121F07F01C7
:101138005960DA604FF4801119635A639A631A642C
:101148005A64044AC3F88420704700BF003802403C
:1011580010300024003000202DE9F0410746884671
:1011680016461D46FFF7CCFF254A136843F4803323
:101178001360234B1B6813F4003FFAD0204C6368BC
:101188001F436760616841EA8811616063686D08A0
:10119800013D43EA05456560626842EA06626260AD
:1011A800636843F480036360236843F080732360BB
:1011B800134B1B6813F0007FFAD0114B9A6842F466
:1011C80000429A609A6842F4A0529A609A689A60BB
:1011D8001A6842F400221A600A4A116841F48071C0
:1011E8001160116841F0050111609A6842F002022D
:1011F8009A60034B9B6813F0080FFAD0BDE8F081A2
:1012080000380240003C0240044A1368013B136066
:1012180013B90122024B1A70704700BF2001002049
:101228001C01002000238360C36003614361704791
:10123800F0B583B004460E4615461F46FFF7F2FF89
:1012480027B1E36843F02003E36003E0E36823F099
:101258002003E360E3681E43E660E36813F4004F8D
:1012680016D1274B9C4209D12B0106EE903AF8EE95
:10127800E66ADFED247AC7EEA66A1FE02B0106EEC8
:10128800903AF8EEE66ADFED207AC7EEA66A15E036
:101298001B4B9C4209D1EB0006EE903AF8EEE66A49
:1012A800DFED187AC7EEA66A08E0EB0006EE903A82
:1012B800F8EEE66A9FED147AC7EE266ABCEEE67A87
:1012C8008DED017ABDF804301D0107EE903AF8EE75
:1012D800E77A76EEE77AB3EE007A67EE877A17EE6A
:1012E800900A00F017FB0022084B00F0B5F900F057
:1012F80065FB80B2284380B2A06003B0F0BD00BF98
:1013080000100140A037A04CA037204C0000E03F5F
:10131800C36823F00803C360704700BFC36843F085
:101328000403C360704700BFC36843F02003C36071
:10133800704700BFC36823F0C003C360704700BF95
:10134800016082800023C38003814381704700BF0E
:101358000268C388D154C38801339BB2C380828892
:10136800934201D30023C3804389013343810F2073
:10137800704700BF836813F0800FFBD1704700BF30
:1013880010B582B02A4B9B6813F0020F1CD0294B72
:101398009A88294B1B889A4208D9264A1268581CF1
:1013A80025490880D25C224BDA600DE0234B1B787C
:1013B80053B91F4C2046FFF7DDFF636823F0800315
:1013C800636000221E4B1A70194B9B6813F0010FC3
:1013D8002BD01C4B1A681AB31B4801884B1C9BB2B4
:1013E80003801348C0685054164A928893420ED31B
:1013F8000F4B5A6822F080025A605A6822F0400265
:101408005A600023104A13800D4A13700DE0FF2222
:10141800074BDA60064B9B6813F0010FFAD004E023
:10142800034BDB68DBB28DF8073002B010BD00BF9C
:1014380000380040C801002008010020C401002035
:10144800D0010020BC0100200601002030B595B075
:1014580000240194214B1A6C42F080521A641B6CD0
:1014680003F080530193019B02941D4B1A6842F4C8
:1014780080421A601B6803F480430293029B012395
:10148800089309934FF480030F93082310934FF4A4
:10149800A873119302251295072313930E9508A894
:1014A800FFF764F80F230393049505944FF4A053B2
:1014B80006934FF48053079303A80521FFF77AFAA0
:1014C800FFF7D8FB074BA3FB00308009FFF71CF898
:1014D8000420FFF72FF815B030BD00BF00380240D8
:1014E80000700040D34D621008B5FEF78DFFFFF77E
:1014F800ADFFFFF71DFD08BD10B5244B1B6813F0A9
:10150800400F1FD0224B1B7813F0FF0F1AD01F4A31
:10151800136823F0400313601E4B1A881E4B1B8868
:101528009A420FD300231B4A1380194A13701B4B8E
:10153800186800F069FA154C2046FFF7FBFE2046B4
:10154800FFF7E6FE114B1B6813F0800F0DD0104B10
:101558001B7813F0FF0F08D0104B19680D4A138839
:10156800581C1080CA5C094B5A60084B1B6813F062
:10157800200F09D0054B1A6822F020021A6059681A
:101588000748C9B2FFF7E4FE10BD00BF00440040A1
:1015980004010020BA010020B0010020B40100209D
:1015A8002401002010B50A480A498022FFF7C8FE26
:1015B800094C20464FF4A0514FF442420123FFF753
:1015C80037FE2046FFF7B0FE2046FFF7A7FE10BD06
:1015D80024010020300100200044004000B583B001
:1015E80008204FF4A87107220223FFF7B5FD124B1C
:1015F800124A5A60F021124A82F8231000269E608F
:1016080007241C60FFF7CEFF0E4D75230093284674
:101618004FF4701132466623FFF7EEFC28464FF46C
:1016280040212246FFF73AFD28464FF44011224652
:10163800FFF734FD20BFFDE710E000E03F90020017
:1016480000ED00E000000240704700BF81F000415B
:1016580002E000BF83F0004330B54FEA41044FEA8F
:10166800430594EA050F08BF90EA020F1FBF54EA2A
:10167800000C55EA020C7FEA645C7FEA655C00F0C6
:10168800E2804FEA5454D4EB5555B8BF6D420CDD97
:101698002C4480EA020281EA030382EA000083EA1A
:1016A800010180EA020281EA0303362D88BF30BDBA
:1016B80011F0004F4FEA01314FF4801C4CEA113110
:1016C80002D0404261EB410113F0004F4FEA03336F
:1016D8004CEA133302D0524263EB430394EA050FFA
:1016E80000F0A780A4F10104D5F1200E0DDB02FA69
:1016F8000EFC22FA05F2801841F1000103FA0EF2FD
:10170800801843FA05F359410EE0A5F120050EF1C2
:10171800200E012A03FA0EFC28BF4CF0020C43FAF3
:1017280005F3C01851EBE37101F0004507D54FF000
:10173800000EDCF1000C7EEB00006EEB0101B1F550
:10174800801F1BD3B1F5001F0CD349085FEA300096
:101758004FEA3C0C04F101044FEA445212F5800FA1
:1017680080F09A80BCF1004F08BF5FEA500C50F13E
:10177800000041EB045141EA050130BD5FEA4C0C21
:10178800404141EB010111F4801FA4F10104E9D1AA
:1017980091F0000F04BF01460020B1FA81F308BFA1
:1017A8002033A3F10B03B3F120020CDA0C3208DD6D
:1017B80002F1140CC2F10C0201FA0CF021FA02F148
:1017C8000CE002F11402D8BFC2F1200C01FA02F1B8
:1017D80020FA0CFCDCBF41EA0C019040E41AA2BFDD
:1017E80001EB0451294330BD6FEA04041F3C1CDAA5
:1017F8000C340EDC04F11404C4F1200220FA04F0C5
:1018080001FA02F340EA030021FA04F345EA03016E
:1018180030BDC4F10C04C4F1200220FA02F001FA30
:1018280004F340EA0300294630BD21FA04F02946B2
:1018380030BD94F0000F83F4801306BF81F480114B
:101848000134013D4EE77FEA645C18BF7FEA655CBE
:1018580029D094EA050F08BF90EA020F05D054EA90
:10186800000C04BF1946104630BD91EA030F1EBF95
:101878000021002030BD5FEA545C05D14000494199
:1018880028BF41F0004130BD14F580043CBF01F58C
:10189800801130BD01F0004545F0FE4141F4700172
:1018A8004FF0000030BD7FEA645C1ABF194610464D
:1018B8007FEA655C1CBF0B46024650EA013406BF4E
:1018C80052EA033591EA030F41F4002130BD00BF0D
:1018D80090F0000F04BF0021704730B54FF48064CA
:1018E80004F132044FF000054FF0000150E700BF4B
:1018F80090F0000F04BF0021704730B54FF48064AA
:1019080004F1320410F0004548BF40424FF0000196
:101918003EE700BF42004FEAE2014FEA31014FEAD9
:1019280002701FBF12F07F4393F07F4F81F0605128
:10193800704792F0000F14BF93F07F4F704730B597
:101948004FF4607401F0004521F0004120E700BF2A
:1019580050EA010208BF704730B54FF000050AE0B1
:1019680050EA010208BF704730B511F0004502D5B2
:10197800404261EB41014FF4806404F132045FEAB4
:10198800915C3FF4DCAE4FF003025FEADC0C18BF59
:1019980003325FEADC0C18BF033202EBDC02C2F14F
:1019A800200300FA03FC20FA02F001FA03FE40EAE1
:1019B8000E0021FA02F11444C1E600BF4A0011D218
:1019C80012F5001211D20DD56FF47873B3EB625291
:1019D8000ED44FEAC12343F0004343EA505323FA9D
:1019E80002F070474FF00000704750EA013002D112
:1019F8004FF0FF3070474FF000007047014B1868F8
:101A0800704700BF70000020024B0146186800F0C4
:101A18000FB800BF7000002010B5431E0A44914261
:101A280004D011F8014B03F8014FF8E710BD00008E
:101A380030B500293DD051F8042C0B1F1D49002A50
:101A4800B8BF9B180A680C4612B95A600B6030BDC3
:101A580093420DD219685818904201BF5A5852182B
:101A68001A6042685A60236030BD994203D80A461A
:101A780051680029F9D1146815199D420AD11B68CB
:101A88002344D0188842136013D1086803441360B4
:101A98004B680DE002D90C23036030BD1C6818198F
:101AA800884204BF08684968596004BF0019186073
:101AB800536030BD1001002070B5CC1C24F0030425
:101AC80008340C2C38BF0C24002C064603DA0C23EF
:101AD8003360002070BD8C42F9D3204A1368104649
:101AE8001946A1B10A68121B0ED40B2A03D90A6041
:101AF8008B188C501FE08B420DBF5A684A685A6099
:101B0800026018BF0B4616E00B464968E9E7144D1A
:101B18002B681BB9304600F025F82860304621466E
:101B280000F020F8421C0346D1D0C51C25F003055F
:101B380085420AD11C6003F10B001A1D20F0070032
:101B4800821A0AD05142995070BD3046E91A00F005
:101B580009F80130BBD02B46ECE770BD100100201E
:101B68000C01002038B5064C0023054608462360C2
:101B7800FFF7A6F8431C02D1236803B12B6038BDD8
:101B880018010020034613F8012B002AFBD1181A6C
:101B98000138704730B5141E9BB0054604DA8B2314
:101BA80003604FF0FF301CE04FF40272ADF80C20D8
:101BB80014BF04F1FF322246029205924FF6FF72DB
:101BC80000910491ADF80E2069461A461E9B00F05C
:101BD80075F8431CBCBF8B232B6014B1009B0022FB
:101BE8001A701BB030BD000073B50093054B064654
:101BF8000D461446186831462A462346FFF7CAFFA1
:101C080002B070BD700000202DE9F0478E68B34225
:101C180082460C469046994640D38A8912F4906FC2
:101C28003AD0256809696F1A6569022305EB4505ED
:101C380095FBF3F57B1C4B449D4238BF1D4653056D
:101C48000FD52946FFF738FF064698B121693A466D
:101C5800FFF7E2FEA38923F4906343F08003A38196
:101C680013E02A4600F0DCFA064670B950462169AE
:101C7800FFF7DEFE0C23CAF80030A38943F04003C7
:101C8800A3814FF0FF30BDE8F087266165613E44CF
:101C9800ED1B2660A5604E46B14500D24E46324641
:101CA8002068414600F0A1FAA3689B1BA360236843
:101CB8001E4426600020BDE8F08700002DE9F043AF
:101CC8009DB0064603938B891C060D4690460CD59D
:101CD8000B6953B94021FFF7EFFE2860286110B95E
:101CE8000C233360CCE040236B610023099320234D
:101CF8008DF8293030238DF82A3043461C4613F8D6
:101D0800012B1AB9B4EB08090FD002E0252AF5D146
:101D1800F8E73046294642464B46FFF775FF013043
:101D280000F0A980099B4B4409932378002B00F00D
:101D3800A28000234FF0FF32049307930592069385
:101D48008DF853301A9304F101084446DFF848919E
:101D580021784846052200F039FA08F10108049B69
:101D680030B1C9EB00000122824013430493ECE731
:101D7800D80644BF20228DF85320190744BF2B22D0
:101D88008DF8532022782A2A02D0079923460EE09C
:101D9800039A111D12680391002ABBBF524243F0F7
:101DA800020307920792B8BF049301340AE01C4665
:101DB80001332278303A092A03D80A2000FB01218E
:101DC800F5E7079123782E2B1AD163782A2B0AD1AD
:101DD800039B1A1D1B680392002BB8BF4FF0FF33FB
:101DE800023405930CE0611C00220C460131237873
:101DF800303B092B03D80A2000FB0232F5E7059295
:101E0800DFF8988021784046032200F0DFF938B1E6
:101E1800049AC8EB00004023834013430493013421
:101E280021781A488DF82810062204F1010800F0DC
:101E3800CDF988B1164B33B9039B073323F0070359
:101E48000833039313E003AB0093304604A92A46F2
:101E5800104BAFF3008007E003AB0093304604A9B2
:101E68002A460C4B00F092F8421C074603D0099B07
:101E78003B44099341E7AB895B0601D4099801E02B
:101E88004FF0FF301DB0BDE8F08300BF0C250008FF
:101E980000000000111C00080225000808250008A1
:101EA8002DE9F84391461F468A680B69DDF82080C2
:101EB8009342B8BF1346C9F8003091F8432006464C
:101EC8000C4612B10133C9F800302368990642BFA5
:101ED800D9F800300233C9F80030256815F0060536
:101EE8001CD094F843302268003318BF01239206AF
:101EF8001FD5E1185A1C302081F84300224494F879
:101F0800451082F84310023313E03046394604F195
:101F180019020123C047013007D00135E368D9F819
:101F280000209B1A9D42F0DBDBE74FF0FF30BDE855
:101F3800F8833046394604F14302C0470130F4D0F3
:101F48002268D9F80050E36802F00602042A08BFA4
:101F58005D1B2269A3680CBF25EAE575002593423D
:101F6800C4BF9B1AED184FF00009A9450ADA30469C
:101F7800394604F11A020123C0470130D5D009F1CE
:101F88000109F2E70020BDE8F88300002DE9FF41D0
:101F98000C461746227E6E2A984606460A9B01F191
:101FA800430100F0AF8012D8632A23D00AD8002A50
:101FB80000F0BC80582A40F0CB8084F84520DFF838
:101FC80004E257E0642A1ED0692A1CD0C0E0732AB4
:101FD80000F0B08009D86F2A2ED0702A40F0B8805F
:101FE800226842F0200222603FE0752A24D0782A35
:101FF8003BD0ADE01A68111D1960136884F84230AF
:1020080004F14205A8E020681A6810F0800F02D099
:10201800101D186008E010F0400F02F1040018606D
:1020280002D0B2F9003000E01368002B3EDA2D220E
:102038005B4284F8432039E020681A6810F0800F6A
:1020480002D0101D186007E010F0400F02F10400E4
:10205800186001D0138800E01368227EDFF864E17D
:102068006F2A0CBF08220A221CE07822DFF858E108
:1020780084F845202268186812F0800F00F10405E2
:102088001D6003D1550601D5038800E00368D00719
:1020980044BF42F0200222601BB9226822F02002CD
:1020A80022601022002084F8430002E0DFF814E1E7
:1020B8000A226568A560002DA2BF206820F00400F0
:1020C800206003B965B10D46B3FBF2F002FB103393
:1020D8001EF8033005F8013D03460028F4D100E05E
:1020E8000D46082A0BD12368DA0708D523696268E8
:1020F8009A42DEBF302305F8013C05F1FF35491B44
:1021080021612EE025681A68606915F0800F03D0F8
:10211800151D1D60136808E015F0400F02F1040555
:102128001D60136801D0188000E018600023236147
:102138000D4616E01A68111D196015686268284670
:10214800002100F043F808B1401B6060636804E0B8
:1021580004F1420584F8422001232361002384F816
:102168004330CDF800803046214603AA3B46FFF7AE
:1021780097FE013002D14FF0FF301FE0304639465C
:102188002A462369C0470130F5D023689B0705D448
:10219800E068039B9842B8BF18460FE00025E36843
:1021A800039A9B1A9D42F3DA3046394604F1190224
:1021B8000123C0470130DED00135F0E704B0BDE8A7
:1021C800F08100BF132500082425000810B5C9B206
:1021D80002449042034606D01C788C4200F101006C
:1021E800F7D1184610BD002010BD814210B501EB93
:1021F800020301D3421E0BE09842FBD28118D21A87
:10220800D34204D013F8014D01F8014DF8E710BD91
:10221800994204D011F8014B02F8014FF8E710BDBC
:10222800F8B5074615460E4621B91146BDE8F840EF
:10223800FFF742BC1AB9FFF7FBFB2846F8BD00F0D0
:1022480015F8A8420ED238462946FFF735FC044651
:1022580050B131462A46FFF7DFFB38463146FFF7D3
:10226800E7FB01E03046F8BD2046F8BD51F8040C04
:102278000028BEBF091851F8043CC018043870473C
:102288002E2E2F73797374656D2F7372632F737489
:102298006D333266342D68616C2F73746D3332661A
:1022A8003478785F68616C5F636F727465782E63E9
:1022B8000000000000000000010203040102030402
:1022C800060708092E2E2F73797374656D2F7372A4
:1022D800632F73746D333266342D68616C2F737499
:1022E8006D3332663478785F68616C5F7263632E31
:1022F8006300000061626F727428292C2065786978
:1023080074696E672E2E2E002C2066756E637469B4
:102318006F6E3A2000000000617373657274696F14
:102328006E2022257322206661696C65643A2066F6
:10233800696C6520222573222C206C696E65202526
:1023480064257325730A00006173736572745F7086
:102358006172616D2829206661696C65643A20663E
:10236800696C6520222573222C206C696E652025F6
:10237800640A00006D61696E28617267633D2564B7
:102388002C20617267763D5B000000002C20000065
:1023980022257322000000005D293B0A000000008E
:1023A800537461636B206672616D653A0A000000C0
:1023B800205230203D2020253038580A00000000E7
:1023C800205231203D2020253038580A00000000D6
:1023D800205232203D2020253038580A00000000C5
:1023E800205233203D2020253038580A00000000B4
:1023F80020523132203D20253038580A0000000094
:10240800204C52203D2020253038580A000000007A
:10241800205043203D2020253038580A0000000075
:1024280020505352203D20253038580A0000000023
:102438004653522F4641523A0A0000002043465361
:1024480052203D2020253038580A000020484653A5
:1024580052203D2020253038580A00002044465399
:1024680052203D2020253038580A0000204146538C
:1024780052203D2020253038580A0000204D4D4676
:102488004152203D20253038580A0000204246415C
:1024980052203D2020253038580A00004D697363CA
:1024A8000A000000204C522F4558435F52455455AE
:1024B800524E3D20253038580A0000005B486172B2
:1024C800644661756C745D0A000000005B427573B8
:1024D8004661756C745D0A005B557361676546619A
:1024E800756C745D0A000000000000000000000028
:1024F80001020304060708094300232D302B20009E
:10250800686C4C00656667454647003031323334A5
:102518003536373839414243444546003031323345
:0D252800343536373839616263646566000A
:102538007856341280000020000000000024F400C7
:102548000000000000000000000000000000000083
:102558000000000000000000000000000000000073
:102568000025000800000000000000000000000036
:102578000000000000000000000000000000000053
:102588000000000000000000000000000000000043
:102598000000000000000000000000000000000033
:0825A800100000203254769867
:040000050800018965
:00000001FF
